const TX = require('ethereumjs-tx')

const txParams = {
    data: "0xfe9d930300000000000000000000000000000000000000000000000000000000001e84800000000000000000000000000000000000000000000000000000000000000040000000000000000000000000000000000000000000000000000000000000002a30783333633265373332616537646365386230356633376232626130636665313463393830633464626500000000000000000000000000000000000000000000",
    from: "0x33c2e732ae7dce8b05f37b2ba0cfe14c980c4dbe",
    gas: "0x1e8480",
    gasLimit: "0x1e8480",
    gasPrice: "0xee6b280",
    nonce: "0x15",
    to: "0x45c25041b8e6CBD5c963E7943007187C3673C7c9",
    value: "0x0"
}
const txparamsTrust = {
    data: "0xfe9d930300000000000000000000000000000000000000000000000000000000001e84800000000000000000000000000000000000000000000000000000000000000040000000000000000000000000000000000000000000000000000000000000002a30783333633265373332616537646365386230356633376232626130636665313463393830633464626500000000000000000000000000000000000000000000",
    from: "0x33c2e732ae7dce8b05f37b2ba0cfe14c980c4dbe",
    gas: "0x1e8480",
    gasLimit: "0x1e8480",
    gasPrice: "0xee6b280",
    nonce: "0x17",
    to: "0x45c25041b8e6CBD5c963E7943007187C3673C7c9",
    value: "0x0"
}
const hash = '0x636136144d300052291d75da4cc1b10f127d0e3ced5ae6bf6adc8eb134ef7324'
const hashtrust = '0x4943d9c3de55ea081191dadd04f4b864f98a392ae340b5b71040b47745962a11'

const signature = {
    r: "0xa6b405d6b1c9ac6917b63ffa7eb8f703dff666f7f74e8db264c17a9c26fc8364",
    s: "0x6f3f29860c678058bbc5c2dbf22086b2edfbfcfce5e22788175a8e84491df62e",
    v: "0x1b"
}

const signature2 = {
    r: "0x4d64d68e5c80466494ce25577366d30410d77aef8fc3b54487508ea7fa2c334f",
    s: "0x64e89f598a6fca3882a49cdd4cd913ee475962224511651b9d96d6d075625e05",
    v: "0x1c"
}
const signTrust = {
    r: "0x31d26991fa29d5fc5717ae4ff60ee7b8d32d1681afec3523f674db2b81b0c410",
    s: "0x3fe16ddc800b3d98128647dfc6042ebf617333952df2488693214b647df01307",
    v: "0x1b"
}

let txObj = Object.assign({}, txparamsTrust, signTrust)
const tx = new TX('0xf9010917840ee6b280831e84809445c25041b8e6cbd5c963e7943007187c3673c7c980b8a4fe9d930300000000000000000000000000000000000000000000000000000000001e84800000000000000000000000000000000000000000000000000000000000000040000000000000000000000000000000000000000000000000000000000000002a307833336332653733326165376463653862303566333762326261306366653134633938306334646265000000000000000000000000000000000000000000001ba031d26991fa29d5fc5717ae4ff60ee7b8d32d1681afec3523f674db2b81b0c410a03fe16ddc800b3d98128647dfc6042ebf617333952df2488693214b647df01307')

console.log(tx.from.toString('hex'))
console.log(tx.to.toString('hex'))
console.log(tx.r.toString('hex'))
console.log(tx.s.toString('hex'))
console.log(tx.v.toString('hex'))
console.log(tx.nonce.toString('hex'))
console.log(tx._chainId)